S01400004C6974746C655F53746F72792E7372656322
S11300000C942A000C94C2080C94EB080C94140968
S11300100C9447000C9447000C94330A0C94E109A7
S11300200C940A0A0C94B8090C948F090C94660970
S11300300C943D090C945C0A0C9447000C94850ABA
S11300400C94D6060C9447000C9447000C9447007B
S11300500C94470011241FBECFE5D8E0DEBFCDBF0E
S113006013E0A0E6B0E0E2EEF5E102C005900D92E7
S1130070AA36B107D9F723E0AAE6B3E001C01D927E
S1130080A838B207E1F70E94D1060C94EF0A0C9449
S113009000000E94FC070E94F70562E870E081E01E
S11300A00E94A70663E770E082E00E94A7066BE661
S11300B070E083E00E94A70663E670E084E00E949B
S11300C0A706089581E00E94320663E081E00E9461
S11300D016068AE890E00E94350661E082E00E94FC
S11300E016062FEF89E698E1215080409040E1F711
S11300F000C000008BE990E00E94350684E00E9475
S1130100320661E083E00E9416062FEF89E698E14B
S1130110215080409040E1F700C000008EEA90E05A
S11301200E94350661E084E00E94160681EC90E0AE
S11301300E9435062FEF87EA91E6215080409040D7
S1130140E1F700C000000E94C40681E080936A03C6
S1130150089581ED90E00E94350660E082E00E94FF
S113016016062FEF89E698E1215080409040E1F790
S113017000C0000086EE90E00E94350660E083E057
S11301800E9416062FEF89E698E1215080409040A6
S1130190E1F700C0000086EF90E00E94350660E0C1
S11301A084E00E9416068BE091E00E9435062FEF52
S11301B087EA91E6215080409040E1F700C00000BA
S11301C00E94C4068DE191E00E94350660E082E061
S11301D00E9416062FEF89E698E121508040904056
S11301E0E1F700C0000081E391E00E94350660E081
S11301F083E00E9416062FEF89E698E121508040A3
S11302009040E1F700C0000082E491E00E943506CE
S113021060E084E00E94160686E591E00E943506BF
S11302202FEF87EA91E6215080409040E1F700C02B
S113023000000E94C40682E080936A030895CF936D
S1130240C82F68E082E00E9416068C2F0E943206B6
S11302508C2F0E9432068C2F0E94320668E084E0C4
S11302600E9416068C2F0E9432068C2F0E943206A2
S11302708C2F0E9432062FEF81EE94E021508040B3
S11302809040E1F700C0000068E082E00E9416069A
S113029080E20E94320680E20E94320680E20E94DE
S11302A0320668E084E00E94160680E20E9432066C
S11302B080E20E94320680E20E9432062FEF81EE35
S11302C094E0215080409040E1F700C00000CF91BD
S11302D0089580916000813069F487E691E00E947E
S11302E035062FEF89E698E1215080409040E1F7F0
S11302F000C0000081E00E941F0182E00E941F01F3
S113030081E00E941F0183E00E941F019091600020
S11303109F5F909360008BEA989F812D11248695AE
S11303208695282F220F820F282F220F921308C0A0
S11303300E94C40683E080936A0381E08093600096
S113034008958AE791E00E94350660E082E00E9409
S113035016062FEF89E698E1215080409040E1F79E
S113036000C000008CE891E00E94350660E083E064
S11303700E9416062FEF89E698E1215080409040B4
S1130380E1F700C0000081EA91E00E94350660E0D8
S113039084E00E94160687EB91E00E9435062FEF59
S11303A087EA91E6215080409040E1F700C00000C8
S11303B00E94C40684E080936A03089582EC91E06D
S11303C00E94350665E084E00E9416062FEF83ED57
S11303D090E3215080409040E1F700C000008091FC
S11303E06D03813009F04FC087ED91E00E9435061E
S11303F084E00E9432062FEF87EA91E62150804084
S11304009040E1F700C000000E94C40681EE91E034
S11304100E94350660E082E00E9416062FEF89E60E
S113042098E1215080409040E1F700C0000084EF43
S113043091E00E94350660E083E00E9416062FEFEB
S113044089E698E1215080409040E1F700C0000027
S113045089E092E00E94350660E084E00E9416067E
S11304608AE192E00E94350684E00E9432062FEF72
S113047087EA91E6215080409040E1F700C00000F7
S11304800E94C40657C0823009F054C087EB91E043
S11304900E94350684E00E9432062FEF87EA91E637
S11304A0215080409040E1F700C000000E94C40643
S11304B08EE292E00E94350660E082E00E94160619
S11304C02FEF89E698E1215080409040E1F700C089
S11304D0000083E492E00E94350660E083E00E941D
S11304E016062FEF89E698E1215080409040E1F70D
S11304F000C0000087E592E00E94350660E084E0D9
S11305000E94160683E292E00E94350684E00E946F
S1130510320684E00E94320684E00E9432062FEF05
S113052087EA91E6215080409040E1F700C0000046
S11305300E94C40686E080936A0310926D030895B6
S1130540CF938BE692E00E94350660E082E00E9441
S113055016062FEF89E698E1215080409040E1F79C
S113056000C000008FE792E00E94350660E083E05F
S11305700E9416062FEF89E698E1215080409040B2
S1130580E1F700C0000084E992E00E94350660E0D3
S113059084E00E94160687EA92E00E9435062FEF57
S11305A087EA91E6215080409040E1F700C00000C6
S11305B00E94C4068DEB92E00E94350660E082E062
S11305C00E9416062FEF89E698E121508040904062
S11305D0E1F700C000008BEC92E00E94350660E079
S11305E083E00E9416062FEF89E698E121508040AF
S11305F09040E1F700C0000080EE92E00E943506D2
S113060060E084E00E94160683EF92E00E943506C3
S11306102FEF87EA91E6215080409040E1F700C037
S113062000000E94C40688E093E00E94350660E062
S113063082E00E9416062FEF89E698E1215080405F
S11306409040E1F700C0000088E193E00E94350685
S113065060E083E00E9416062FEF89E698E12150BE
S113066080409040E1F700C000008AE293E00E94DD
S1130670350666E084E00E941606C0E00DC084E002
S11306800E9432062FEF80E792E021508040904094
S1130690E1F700C00000CF5FC63088F32FEF8DE391
S11306A099E4215080409040E1F700C000000E948E
S11306B0C40610926A03CF91089580916A03811150
S11306C003C00E9462000895813019F40E94A900B9
S11306D00895823019F40E9469010895833019F451
S11306E00E94A1010895843069F50E94FC03809161
S11306F0610090916200019741F460E084E00E94FF
S1130700160689E393E00E9435068091610090917A
S113071062000196909362008093610080916D0362
S11307208823C9F00E94C40685E080936A0381E0AF
S113073090E0909362008093610010926C03109299
S11307406B030895853019F40E94DE010895863004
S113075011F40E94A0020895CF938FE10E940C0827
S113076081110DC08FED9EE20197F1F700C00000EA
S11307708FE10E940C088823D9F3C1E001C0C4E0D2
S11307808EE10E940C0881110CC08FED9EE201974E
S1130790F1F700C000008EE10E940C088823D9F311
S11307A0C0E08C2FCF910895CF938DE10E940C0867
S11307B081110DC08FED9EE20197F1F700C000009A
S11307C08DE10E940C088823D9F3C3E001C0C4E082
S11307D08BE10E940C0881110CC08FED9EE2019701
S11307E0F1F700C000008BE10E940C088823D9F3C4
S11307F0C2E08C2FCF91089580916C03853021F055
S113080090916B03953061F4853019F481E0809305
S11308106D0380916B03853019F482E080936D033E
S113082063E180917F000E94160681E00E943206F7
S113083060E0809180000E94160681E00E943206EA
S11308400E94AC0380937C000E94D40380937B00BD
S113085090918100992309F477C090917C009130A4
S113086059F490917D009F5F90937D00943081F4C2
S113087093E090937D000CC091110AC090917D008B
S1130880915090937D00911103C091E090937D006D
S1130890833099F463E180917F000E94160680E220
S11308A00E94320680917F008F5F80937F008430A6
S11308B0C1F483E080937F0014C0823091F463E13B
S11308C080917F000E94160680E20E943206809189
S11308D07F00815080937F00811103C081E0809369
S11308E07F0080917E008F5F80937E00823109F0CB
S11308F0A2C01092810090917D0080917F00981792
S113090009F499C061E086E10E943F082FEF85EA6F
S11309109EE0215080409040E1F700C0000060E07C
S113092086E10E943F0880916C038F5F80936C0383
S113093063E084E00E94160660916C0370E080E03E
S113094090E00E94480677C0833059F480917D007E
S11309508F5F80937D00843081F483E080937D00F9
S11309600CC0823051F480917D00815080937D00D1
S1130970811103C081E080937D0080917C008130EF
S1130980A1F4809180008F5F80938000843019F4FB
S113099083E0809380008091800060E081500E9419
S11309A0160680E20E94320615C0811113C08091A0
S11309B08000815080938000811103C081E0809386
S11309C080008091800060E08F5F0E94160680E2C4
S11309D00E94320680917E00815080937E00813097
S11309E051F590917D0080918000981709F161E0A4
S11309F086E10E943F082FEF85EA9EE02150804067
S1130A009040E1F700C0000060E086E10E943F08EA
S1130A1080916B038F5F80936B0361E184E00E949C
S1130A20160660916B0370E080E090E00E94480637
S1130A3081E08093810060917E0080917D000E941E
S1130A40160680E30E9432062FEF80E792E02150E1
S1130A5080409040E1F700C0000060917E008091EA
S1130A607D000E94160680E20E9432060895CF930C
S1130A70C82F60E083E00E943F086C2F661F662742
S1130A80661F8CE00E943F08C6FB662760F98AE077
S1130A900E943F08C5FB662760F989E00E943F0871
S1130AA0C4FB662760F988E00E943F0861E082E0A9
S1130AB00E943F088FE99FE00197F1F700C0000012
S1130AC060E082E00E943F088FE99FE00197F1F720
S1130AD000C00000C3FB662760F98CE00E943F0859
S1130AE0C2FB662760F98AE00E943F08C1FB6627C3
S1130AF060F989E00E943F086C2F617088E00E94D1
S1130B003F0861E082E00E943F088FE99FE001977F
S1130B10F1F700C0000060E082E00E943F088FE926
S1130B209FE00197F1F700C00000CF910895CF93A3
S1130B30C82F61E083E00E943F086C2F661F662780
S1130B40661F8CE00E943F08C6FB662760F98AE0B6
S1130B500E943F08C5FB662760F989E00E943F08B0
S1130B60C4FB662760F988E00E943F0861E082E0E8
S1130B700E943F088FE99FE00197F1F700C0000051
S1130B8060E082E00E943F088FE99FE00197F1F75F
S1130B9000C00000C3FB662760F98CE00E943F0898
S1130BA0C2FB662760F98AE00E943F08C1FB662702
S1130BB060F989E00E943F086C2F617088E00E9410
S1130BC03F0861E082E00E943F088FE99FE00197BF
S1130BD0F1F700C0000060E082E00E943F088FE966
S1130BE09FE00197F1F700C00000CF9108952FE72F
S1130BF085EB91E0215080409040E1F700C0000077
S1130C0082E00E94370588E20E9437058CE00E944A
S1130C10370581E00E9437058FE99FE00197F1F7DE
S1130C2000C0000086E00E9437050895813029F451
S1130C3080E8860F0E9437050895823029F480ECFD
S1130C40860F0E9437050895833029F484E9860FBE
S1130C500E9437050895843021F484ED860F0E94A4
S1130C60370508950E94970508950F931F93CF9316
S1130C708C01C0E003C00E949705CF5FF801EC0F20
S1130C80F11D80818111F7CFCF911F910F910895AC
S1130C90CF92DF92EF92FF921F93CF93DF93CDB762
S1130CA0DEB72A970FB6F894DEBF0FBECDBF6B0137
S1130CB07C01611571058105910521F480E30E9491
S1130CC032060DC099235CF48DE20E943206F09442
S1130CD0E094D094C094C11CD11CE11CF11C10E020
S1130CE015C0C701B6012AE030E040E050E00E94A0
S1130CF0D00AE1E0F0E0EC0FFD1FE10FF11D605DB3
S1130D006083C22ED32EE42EF52E1F5F1C141D0407
S1130D101E041F0434F311500AC0E1E0F0E0EC0FAC
S1130D20FD1FE10FF11D80810E94320611501F3F0B
S1130D30A1F72A960FB6F894DEBF0FBECDBFDF91A0
S1130D40CF911F91FF90EF90DF90CF9008950F9374
S1130D501F93CF938B0190E00896880F880F880F1C
S1130D600E943705C0E007C0F801EC0FF11D808137
S1130D700E949705CF5FC830B8F380E80E9437051A
S1130D80CF911F910F91089581E00E9437058FE361
S1130D909FE10197F1F700C0000080E80E94370549
S1130DA008950E9449000E945D03FDCF1F920F9297
S1130DB00FB60F9211242F933F934F935F936F932A
S1130DC07F938F939F93AF93BF93EF93FF93E091A0
S1130DD06E03F0916F03309709F00995FF91EF913D
S1130DE0BF91AF919F918F917F916F915F914F913F
S1130DF03F912F910F900FBE0F901F901895982F31
S1130E009770869586958695613009F455C020F0D3
S1130E10623009F4A1C008958130C1F028F0823015
S1130E2039F18330B9F108954AB321E030E0B901D2
S1130E3002C0660F771F9A95E2F7CB01942F982B87
S1130E409ABB9BB3809589238BBB089547B321E05C
S1130E5030E0B90102C0660F771F9A95E2F7CB0123
S1130E60942F982B97BB98B38095892388BB0895BA
S1130E7044B321E030E0B90102C0660F771F9A95B0
S1130E80E2F7CB01942F982B94BB95B380958923DB
S1130E9085BB089541B321E030E0B90102C0660F7B
S1130EA0771F9A95E2F7CB01942F982B91BB92B3BD
S1130EB08095892382BB08958130C1F028F0823067
S1130EC039F18330B9F108954AB321E030E0B90132
S1130ED002C0660F771F9A95E2F7CB018095942F95
S1130EE098239ABB9BB389238BBB089547B321E016
S1130EF030E0B90102C0660F771F9A95E2F7CB0183
S1130F008095942F982397BB98B3892388BB089521
S1130F1044B321E030E0B90102C0660F771F9A950F
S1130F20E2F7CB018095942F982394BB95B3892342
S1130F3085BB089541B321E030E0B90102C0660FDA
S1130F40771F9A95E2F7CB018095942F982391BB54
S1130F5092B3892382BB08958130C1F028F0823096
S1130F6039F18330B9F108954AB321E030E0B90191
S1130F7002C0660F771F9A95E2F7CB01962F9095E2
S1130F8094239ABB9BB3892B8BBB089547B321E071
S1130F9030E0B90102C0660F771F9A95E2F7CB01E2
S1130FA0962F9095942397BB98B3892B88BB08956B
S1130FB044B321E030E0B90102C0660F771F9A956F
S1130FC0E2F7CB01962F9095942394BB95B3892B8C
S1130FD085BB089541B321E030E0B90102C0660F3A
S1130FE0771F9A95E2F7CB01962F9095942391BBA6
S1130FF092B3892B82BB0895CF93C0E009C0EC2F34
S1131000F0E0E65BFC4F60818C2F0E94FF06CF5F0F
S1131010C032A8F3CF910895282F2770869586951E
S11310208695813079F028F08230A9F08330E1F0A0
S113103024C089B390E002C0959587952A95E2F77C
S11310408170089586B390E002C0959587952A959E
S1131050E2F78170089583B390E002C09595879577
S11310602A95E2F78170089580B390E002C09595C7
S113107087952A95E2F78170089580E00895982F66
S113108097708695869586956130E1F5813099F063
S113109028F08230E9F0833041F108954BB321E028
S11310A030E0B90102C0660F771F9A95E2F7CB01D1
S11310B0842B8BBB089548B321E030E0B90102C012
S11310C0660F771F9A95E2F7CB01842B88BB0895AE
S11310D045B321E030E0B90102C0660F771F9A954D
S11310E0E2F7CB01842B85BB089542B321E030E0C5
S11310F0B90102C0660F771F9A95E2F7CB01842BE2
S113110082BB08958130A1F028F08230F9F0833059
S113111059F108954BB321E030E0B90102C0660FE4
S1131120771F9A95E2F7CB01809584238BBB0895B2
S113113048B321E030E0B90102C0660F771F9A95E9
S1131140E2F7CB018095842388BB089545B321E061
S113115030E0B90102C0660F771F9A95E2F7CB0120
S11311608095842385BB089542B321E030E0B90122
S113117002C0660F771F9A95E2F7CB01809584230E
S113118082BB08951F920F920FB60F9211242F93D2
S11311903F934F935F936F937F938F939F93AF93FB
S11311A0BF93EF93FF93E0917403F091750330972D
S11311B009F00995FF91EF91BF91AF919F918F91A4
S11311C07F916F915F914F913F912F910F900FBE3F
S11311D00F901F9018951F920F920FB60F92112423
S11311E02F933F934F935F936F937F938F939F932B
S11311F0AF93BF93EF93FF93E0917203F091730366
S1131200309709F00995FF91EF91BF91AF919F91AC
S11312108F917F916F915F914F913F912F910F909B
S11312200FBE0F901F9018951F920F920FB60F923A
S113123011242F933F934F935F936F937F938F93D7
S11312409F93AF93BF93EF93FF93E0917003F0915B
S11312507103309709F00995FF91EF91BF91AF9118
S11312609F918F917F916F915F914F913F912F91BA
S11312700F900FBE0F901F9018951F920F920FB6EC
S11312800F9211242F933F934F935F936F937F9308
S11312908F939F93AF93BF93EF93FF93E091760364
S11312A0F0917703309709F00995FF91EF91BF9181
S11312B0AF919F918F917F916F915F914F913F91EA
S11312C02F910F900FBE0F901F9018951F920F92A1
S11312D00FB60F9211242F933F934F935F936F9305
S11312E07F938F939F93AF93BF93EF93FF93E0917B
S11312F07A03F0917B03309709F00995FF91EF9100
S1131300BF91AF919F918F917F916F915F914F9119
S11313103F912F910F900FBE0F901F9018951F9221
S11313200F920FB60F9211242F933F934F935F9315
S11313306F937F938F939F93AF93BF93EF93FF9399
S1131340E0917803F0917903309709F00995FF91C2
S1131350EF91BF91AF919F918F917F916F915F9129
S11313604F913F912F910F900FBE0F901F901895A2
S11313701F920F920FB60F9211242F933F934F9306
S11313805F936F937F938F939F93AF93BF93EF93E9
S1131390FF93E0918203F0918303309709F009955C
S11313A0FF91EF91BF91AF919F918F917F916F9139
S11313B05F914F913F912F910F900FBE0F901F900F
S11313C018951F920F920FB60F9211242F933F93EB
S11313D04F935F936F937F938F939F93AF93BF9339
S11313E0EF93FF93E0918003F0918103309709F02C
S11313F00995FF91EF91BF91AF919F918F917F914B
S11314006F915F914F913F912F910F900FBE0F906D
S11314101F9018951F920F920FB60F9211242F93BD
S11314203F934F935F936F937F938F939F93AF9368
S1131430BF93EF93FF93E0917E03F0917F03309786
S113144009F00995FF91EF91BF91AF919F918F9111
S11314507F916F915F914F913F912F910F900FBEAC
S11314600F901F9018951F920F920FB60F92112490
S11314702F933F934F935F936F937F938F939F9398
S1131480AF93BF93EF93FF93E0917C03F0917D03BF
S1131490309709F00995FF91EF91BF91AF919F911A
S11314A08F917F916F915F914F913F912F910F9009
S11314B00FBE0F901F9018951F920F920FB60F92A8
S11314C011242F933F934F935F936F937F938F9345
S11314D09F93AF93BF93EF93FF93E0918603F091B3
S11314E08703309709F00995FF91EF91BF91AF9170
S11314F09F918F917F916F915F914F913F912F9128
S11315000F900FBE0F901F9018951F920F920FB659
S11315100F9211242F933F934F935F936F937F9375
S11315208F939F93AF93BF93EF93FF93E0918403C3
S1131530F0918503309709F00995FF91EF91BF91E0
S1131540AF919F918F917F916F915F914F913F9157
S11315502F910F900FBE0F901F901895A1E21A2E95
S1131560AA1BBB1BFD010DC0AA1FBB1FEE1FFF1F43
S1131570A217B307E407F50720F0A21BB30BE40B93
S1131580F50B661F771F881F991F1A9469F76095DA
S11315907095809590959B01AC01BD01CF01089594
S11315A0052E97FB1EF400940E94E70A57FD07D00E
S11315B00E94AE0A07FC03D04EF40C94E70A50953F
S11315C04095309521953F4F4F4F5F4F089590952B
S11315D08095709561957F4F8F4F9F4F0895F89434
S10515E0FFCF37
S11315E201010000001B1F1F0E0400040A050E1453
S11315F2040E11040A140E05040E1104040101015F
S11316020101040A040E15040A0A20202020486558
S11316126C6C6F21202020202020005468697320E4
S113162269732048616D6F6B7368612E20004927CE
S11316326C6C2074616C6B207769746820796F75A7
S11316420061626F7574206D792053746F72792E04
S1131652004166746572206D7920677261647561F8
S113166274696F6E200066726F6D20666163756CBB
S11316727479206F6600456E67696E656572696E7E
S11316826720696465636964656400746F206861D6
S1131692766520736F6D652066756E2E00736F20FC
S11316A269206D6164652061207061727479202003
S11316B20077697468206D7920667269656E647357
S11316C2200063656C6562726174696E6720746878
S11316D26520656E64006F662074686973206A6FA2
S11316E275726E65792E00202048616D6F6B736888
S11316F261277320506172747900416674657220A7
S11317027468697320677265617420007061727411
S11317127920692077656E7420746F20706C61790A
S113172200706164656C2077697468206D79206645
S11317327269656E64200037617A616C326F6F6D15
S113174220005468652077696E6E65722069732083
S11317522E2E2E2E2E2E0048616D6F6B7368612023
S1131762006920776173207665727920676C616401
S113177220746F0077696E207468652067616D65F7
S1131782206265747765656E006D6520616E642004
S113179237617A616C326F6F6D006974207761739F
S11317A22061206E6963652067616D652E00616C3E
S11317B274686F7567682069206C6F73742074682D
S11317C269730067616D65206265747765656E2073
S11317D26D6520616E640037617A616C326F6F6D82
S11317E22C206974207761732061004166746572EC
S11317F2207370656E64696E672073756368006731
S1131802726561742074696D652C20692077616E3C
S113181274656400746F206A6F696E204E54492C9B
S113182220736F20692000776F726B656420766580
S11318327279206861726420746F202000206265CE
S11318422073656C65637465642E00416E64206860
S11318526572652069276D2074616C6B696E67001F
S11318627769746820796F752066726F6D204E54A3
S11318724920007468726F756768206D792031732E
S1131882742070726F6A2E005468616E6B732066E6
S11318926F7220796F75720074696D6520692061B9
S11318A270707265636961746500796F757220691D
S11318B26E7465726573742E0070313A2020202094
S11318C220202020202070323A0001010000000074
S11318D200010000000000000000020200000000FD
S10D18E200000000000200020202F0
S9030000FC
